:020000040000FA
:10000000681900205D6E00006D6E0000716E0000CA
:10001000796E0000756E0000796E0000000000002F
:10002000000000000000000000000000796E0000E9
:10003000796E000000000000796E0000796E00000B
:1000400053B94AB9002908BF00281CBF4FF0FF313F
:100050004FF0FF3000F00CB8ADF1080C6DE904CEA4
:1000600008F02CF8DDF804E0DDE9022304B0704765
:10007000704700BF80B500AF06F088FF0346002B35
:100080000CBF01230023DBB2184680BD80B500AF52
:1000900006F07CFF0346032B0CBF01230023DBB2D9
:1000A000184680BD80B500AF06F070FF0346042BF4
:1000B0000CBF01230023DBB2184680BD80B483B09F
:1000C00000AF78607B6800221A707B6800225A605B
:1000D0007B6800229A607B68034ADA6000BF0C37B5
:1000E000BD4680BC704700BFFD84000080B582B073
:1000F00000AF7860396020220021786808F04CFA5F
:100100007B6843F603021A807B68981C3B680233C5
:100110000C22194608F02EF93B689B7BC3F30003C1
:10012000D9B27A68937B61F3000393733B689B7B3E
:10013000C3F3C003D9B27A68937B61F3C3039373AB
:100140003B68DB7B1A467B681A823B681A697B68CE
:100150009A6100BF0837BD4680BD000080B586B0FB
:1001600002AF78607B68002B03D1B148FFF7A6FF90
:1001700004E010227968AE4808F0FCF8AD4B1B781B
:10018000002B10D0AC4B1B7883F00103DBB2002BAB
:1001900001D00923B9E2A84B00221A70A74B1B68B3
:1001A000184602F081FEA64B1B7883F00103DBB2F8
:1001B000002B19D0A34803F08DFEA34B1B68A14A66
:1001C00013609B4B5B68002B0BD0994B9B68002BFB
:1001D00007D0974B5B689B4A5361954B9B68994A44
:1001E0009361974B01221A70914BDB68974A136019
:1001F0001C220021964808F0CFF9954B43F60502E2
:100200001A80934BB0225A74914A137B6FF3030305
:1002100013738F4A537B032161F3030353738C4A97
:10022000137C43F001031374894A137C43F00803E1
:100230001374874A137C6FF304131374844AD37DB9
:10024000042161F30303D375814B44F620629A6164
:100250000123FB730023BB7300237B737D4B0022C0
:100260001A70734B1B78072B00F29C8001A252F886
:1002700023F000BF95020000B3020000DD02000081
:100280002B03000053030000170300003F0300008E
:100290007D030000FFF7EEFE0346002B04D1FFF7BD
:1002A000F5FE0346002B01D00023FB730123BB7333
:1002B00088E0FFF7DFFE034683F00103DBB2002B8B
:1002C00073D0FFF7E3FE034683F00103DBB2002B9C
:1002D0006BD00123FB730123BB7366E0FFF7CAFEFB
:1002E000034683F00103DBB2002B60D0FFF7CEFEA4
:1002F000034683F00103DBB2002B58D0FFF7D2FE98
:10030000034683F00103DBB2002B50D00123FB73C3
:100310000123BB734BE006F047FE0346082B48D190
:100320000023FB730123BB7343E006F03DFE03464D
:10033000052B40D10023FB730123BB733BE006F088
:1003400033FE0346082B38D10023FB730123BB7314
:1003500033E0FFF78FFE034683F00103DBB2002B8F
:100360002DD0FFF793FE034683F00103DBB2002B91
:1003700025D00123FB730123BB7320E006F014FE9C
:1003800003460C2B09D006F00FFE03460D2B04D0BC
:1003900006F00AFE03460E2B13D10123FB73012343
:1003A000BB730EE00023BB730CE000BF0AE000BF8C
:1003B00008E000BF06E000BF04E000BF02E000BFAD
:1003C00000E000BFBB7B83F00103DBB2002B04D055
:1003D000194B01221A70022397E100233B7342E07C
:1003E0003A7B1D491346DB0013449B000B441A78EB
:1003F0000F4B1B789A4233D13A7B1346DB001344F0
:100400009B00154A1344154A13603A7B1249134660
:10041000DB0013449B000B4414331B68002B02D1F8
:1004200001237B7324E00B4B01221A7020E000BFF4
:1004300010090020280800200C090020780700205F
:10044000480800202C080020D4000020C806002006
:10045000EC0800202A0800200000002008090020E5
:100460003B7B01333B73AB4B1B783A7B9A42B7D350
:10047000A94B1B68002B04D1A84B01221A70022340
:1004800043E1FB7B002B08D0A34B1B689B68282211
:100490001946A34807F06EFF07E09F4B1B689B6857
:1004A000202219469E4807F065FF9B4B1B68DB68BE
:1004B000182219469B4807F05DFF974B1B685B6845
:1004C00010221946984807F055FF934B1B689B690B
:1004D00030221946954807F04DFF7B7B002B07D053
:1004E0008D4B1B681B6919469148FFF7FFFD07E01C
:1004F000894B1B685B69202219468D4807F03AFF3B
:100500008C4B1B78002B02D0874B05221A708A4B2C
:10051000834A8549894802F09DFB0346884A136057
:10052000824B00225A80814B00225A607F4B00226E
:100530009A607E4A137B6FF3030313737B4A137B2A
:100540006FF304131373794A137B6FF3461313731A
:10055000764A137B6FF3C7131373744A537B0121DD
:1005600061F303035373714A537B6FF307135373A0
:100570006E4A937B6FF3000393736C4A937B6FF324
:1005800041039373694A937B6FF382039373674AC2
:10059000937B43F008039373644A937B6FF30413D4
:1005A0009373624A937B6FF3861393735F4A937BD3
:1005B0006FF3C71393735D4AD37B6FF30003D37359
:1005C0005A4AD37B6FF34103D373584AD37B43F02A
:1005D0000803D373554AD37B6FF30413D373534A81
:1005E000D37B6FF34513D373504AD37B6FF38613DA
:1005F000D3734E4AD37B6FF3C713D3734B4B002295
:100600005A614A4B88221A834E4B1B78002B11D01B
:10061000464B4D4A1A61454A937E102161F305030A
:100620009376424BFC229A77404A937B6FF34513B3
:10063000937310E03D4B454A1A613C4A937E082172
:1006400061F305039376394B00229A77374A937BFF
:1006500043F020039373354AD37E082161F3C70327
:10066000D376324A538B6FF38A1353832F4A137F07
:100670006FF300031377364B1B7803F01F03D9B2D7
:100680002A4A137F61F345031377284A938B6FF34C
:100690008A139383254A537F012161F3C70353775C
:1006A000224AD37F012161F30303D3771F4AD37F0B
:1006B0006FF30413D3771D4AD37F6FF34613D377B9
:1006C0001A4AD37F6FF3C713D377184B00221A62ED
:1006D000164B204A5A62154B1F4A9A62134B1F4A07
:1006E000DA62174B18684FF002024FF0E243CDE98F
:1006F0000023002300220B4903F0D4FB074B012207
:100700001A70174B01221A70002318461037BD4685
:1007100080BD00BF68960000080900200C09002079
:100720004C080020740800208C080020BC08002021
:100730009C080020490800202C080020D00600203A
:10074000780700202A0800204E905500DE510B93B8
:100750009000002094000020140800201C080020B5
:10076000280800202DE9B04F92B002AFF8620423B0
:1007700087F83F30654B1B78002B03D0644B1B7808
:10078000002B01D00123BCE0624B1B7883F00103F6
:10079000DBB2002B01D00923B3E05E4A00231370C3
:1007A000FA6A5D4BA3FB02239B0CBB87FB6A00220A
:1007B0003B627A62BB8F00229A46934652465B4662
:1007C0004FF000004FF00001590141EAD2615001A1
:1007D00002460B46B2EB0A0463EB0B054FF0000236
:1007E0004FF000036B0243EAD453620214461D46E5
:1007F00014EB0A0845EB0B094FF000024FF0000321
:100800004FEA891343EA98634FEA8812B2EB080172
:10081000396063EB09037B60D7E900341A4612EBB9
:100820000A02BA61234643EB0B03FB61D7E90812C6
:100830000846D7E906341D46401B3861234662EB63
:1008400003037B614FF000004FF00001D7E904453E
:100850002B461904224641EA1241234618042F4A26
:100860004FF00003FFF7ECFB02460B4613467B8775
:100870002B4ABB8FD3812A4A7B8F1382294B1B883B
:1008800043F60702934214D1264B1B8CBA8F9A422F
:100890000FD0244ABB8F1384234B18684FF00202F9
:1008A0004FF0E243CDE90023002300221D4903F06D
:1008B000F9FA1D4B18684FF002024FF0E243CDE900
:1008C000002300230022164903F0ECFAC7E90C01CB
:1008D000D7E90C2302F00203BB600023FB60D7E9D9
:1008E00002120B46134307D00D4B5B88B3F5806FA4
:1008F00002D1002387F83F30064B01221A7097F887
:100900003F3018464037BD46BDE8B08F280800206C
:10091000290800200C09002083DE1B4340420F0001
:10092000740800204C08002078070020B0B58CB077
:1009300002AF7860062387F827309B4B1B78002B8B
:1009400003D09A4B1B78002B01D0012328E1984B50
:100950001B7883F00103DBB2002B01D009231FE1D8
:10096000934B00221A70934B3B623B6A8922DA80D8
:100970003B6A00221A71904A3B6A13608E4B002238
:100980005A608E4B8C4A9A628C4B8D4ADA627B6835
:10099000DB68002B0FD0894A137B022161F303032C
:1009A0001373864A137B43F0800313737B68DB6801
:1009B000824A93600CE0814A137B6FF30303137345
:1009C0007E4A137B43F0800313737C4B00229A60B2
:1009D0007B681B69002B13D0784AD37F022161F317
:1009E0000303D377754AD37F43F08003D37702F0B4
:1009F000F9FA02467B681B691344704A13620DE0E2
:100A00006E4AD37F012161F30303D3776B4AD37F0F
:100A100043F08003D377694B00221A620C22002135
:100A2000674807F0B9FD674B1B78002B16D00123F0
:100A30003B74624B1B6AFB60634B186807F10C0147
:100A40004FF002024FF0E243CDE9002300230A46B3
:100A50005A4903F0D9F80346BB840EE05A4B186894
:100A60004FF002024FF0E243CDE9002300230122C0
:100A7000524903F059F80346BB84534B1868B7F941
:100A800024104FF002024FF0000303F003FAC7E90D
:100A90000601D7E9062302F00204002554EA050303
:100AA00079D0464B5B88B3F5505F67D13B6A1B79C1
:100AB000032B03D0062387F827306CE0404B1B88BC
:100AC000012B0AD03D4B9B7B23F07F03DBB2002B35
:100AD00040D03B4B1B79012B3CD13B6A1A7A3B4BF4
:100AE0001B78D31ADAB27B681A75394B1B78002B46
:100AF00003D0384B02221A7002E0364B01221A70E2
:100B000078683B6A0833334A127813442F4A1278C4
:100B1000194607F02FFC7B6803F115003B6A03F1CF
:100B200008022C4B1B781946284B1B780B44D11814
:100B30007B681B7D1A4607F01DFC214B93F90720AB
:100B40007B681A72002387F827301D4B9A687B68F0
:100B5000DA6020E01A4B9B79012B03D1082387F838
:100B6000273018E0164B5B79012B03D10A2387F855
:100B7000273010E0062387F827300CE00F4B5B8806
:100B800043F20142934203D1072387F8273002E062
:100B9000062387F82730064B01221A7097F8273072
:100BA00018462837BD46B0BD280800202908002077
:100BB0000C0900207C07002014080020BC0800203D
:100BC0001C08002049080020780700209000002021
:100BD0002A0800209100002080B500AF01F008F93C
:100BE00005F0B4FA002000F071FF00BFFDE700003F
:100BF00080B582B000AF064B7B604FF4816205493F
:100C0000786807F0B7FB00BF0837BD4680BD00BF5E
:100C10001C0400216C96000080B400AF00BFBD46EC
:100C200080BC704780B485B000AF234BFB60234B82
:100C3000BB60234B7B60BB68503300221A70BB68DB
:100C4000393301221A70BB68353302221A70BB682F
:100C5000373303221A70BB686E3304221A70BB68E4
:100C60006B3305221A70BB68413306221A70BB68C9
:100C70000D3307221A70BB682B3308221A70BB6829
:100C80002C3309221A70BB682D330A221A70BB68F4
:100C900030330B221A70FB680C221A70BB68383391
:100CA0000D221A707B680433064A1A6000BF14379D
:100CB000BD4680BC704700BF3803002140030021BF
:100CC000BC030021A506002180B500AFFFF7A4FFFB
:100CD000FFF78EFFFFF7A6FF00BF80BD80B500AF16
:100CE000FFF7F2FF00BF80BD80B48DB000AF494B6D
:100CF000FB62494BBB6235237B62FB6A1A1DFA62B9
:100D00001B683B62FB6A1A1DFA621B68FB61FB6A87
:100D10001A1DFA621B68BB61FB6A1A1DFA621B6826
:100D20007B61FB6A1A1DFA621B683B61FB6A1A1D34
:100D3000FA621B68FB60FB6A1A1DFA621B68BB60E3
:100D4000FB6A1A1DFA621B687B60BB6A1A1DBA62D5
:100D50003A6A1A60BB6A1A1DBA62FA691A60BB6AFB
:100D60001A1DBA62BA691A60BB6A1A1DBA627A6938
:100D70001A60BB6A1A1DBA623A691A60BB6A1A1D08
:100D8000BA62FA681A60BB6A1A1DBA62BA681A6057
:100D9000BB6A1A1DBA627A681A607B6A013B7B6281
:100DA0007B6A002BA9D1FB6A1A1DFA621B683B62A1
:100DB000FB6A1A1DFA621B68FB61FB6A1A1DFA6264
:100DC0001B68BB61FB6A1A1DFA621B687B61FB6AC8
:100DD0001A1DFA621B683B61BB6A1A1DBA623A6A45
:100DE0001A60BB6A1A1DBA62FA691A60BB6A1A1DD8
:100DF000BA62BA691A60BB6A1A1DBA627A691A6065
:100E0000BB6A1A1DBA623A691A6000BF3437BD4620
:100E100080BC7047749A000000C0002180B582B089
:100E200000AF064B7B604FF481620549786807F09C
:100E3000A1FA00BF0837BD4680BD00BF1C040021D9
:100E400028A1000080B400AF00BFBD4680BC704741
:100E500080B485B000AF234BFB60234BBB60234BBA
:100E60007B60BB68503300221A70BB6839330122A3
:100E70001A70BB68353302221A70BB6837330322FD
:100E80001A70BB686E3304221A70BB686B3305227C
:100E90001A70BB68413306221A70BB680D330722F3
:100EA0001A70BB682B3308221A70BB682C330922D6
:100EB0001A70BB682D330A221A70BB6830330B22BC
:100EC0001A70FB680C221A70BB6838330D221A7036
:100ED0007B680433064A1A6000BF1437BD4680BCE5
:100EE000704700BF3803002140030021BC030021EC
:100EF000A506002180B500AFFFF7A4FFFFF78EFF26
:100F0000FFF7A6FF00BF80BD80B500AFFFF7F2FF7F
:100F100000BF80BD80B48DB000AF494BFB62494B30
:100F2000BB6235237B62FB6A1A1DFA621B683B6257
:100F3000FB6A1A1DFA621B68FB61FB6A1A1DFA62E2
:100F40001B68BB61FB6A1A1DFA621B687B61FB6A46
:100F50001A1DFA621B683B61FB6A1A1DFA621B6864
:100F6000FB60FB6A1A1DFA621B68BB60FB6A1A1DF4
:100F7000FA621B687B60BB6A1A1DBA623A6A1A6021
:100F8000BB6A1A1DBA62FA691A60BB6A1A1DBA6294
:100F9000BA691A60BB6A1A1DBA627A691A60BB6ABA
:100FA0001A1DBA623A691A60BB6A1A1DBA62FA68F7
:100FB0001A60BB6A1A1DBA62BA681A60BB6A1A1D47
:100FC000BA627A681A607B6A013B7B627B6A002B9B
:100FD000A9D1FB6A1A1DFA621B683B62FB6A1A1DE3
:100FE000FA621B68FB61FB6A1A1DFA621B68BB612F
:100FF000FB6A1A1DFA621B687B61FB6A1A1DFA62A2
:101000001B683B61BB6A1A1DBA623A6A1A60BB6A06
:101010001A1DBA62FA691A60BB6A1A1DBA62BA6905
:101020001A60BB6A1A1DBA627A691A60BB6A1A1D15
:10103000BA623A691A6000BF3437BD4680BC704757
:1010400030A5000000C0002180B582B000AF064B83
:101050007B604FF481620549786807F08BF900BF27
:101060000837BD4680BD00BF1C040021E4AB000072
:1010700080B400AF00BFBD4680BC704780B485B06F
:1010800000AF234BFB60234BBB60234B7B60BB68F3
:10109000503300221A70BB68393301221A70BB68C2
:1010A000353302221A70BB68373303221A70BB68CB
:1010B0006E3304221A70BB686B3305221A70BB684A
:1010C000413306221A70BB680D3307221A70BB68C1
:1010D0002B3308221A70BB682C3309221A70BB68A4
:1010E0002D330A221A70BB6830330B221A70FB684A
:1010F0000C221A70BB6838330D221A707B680433D7
:10110000064A1A6000BF1437BD4680BC704700BF56
:101110003803002140030021BC030021A506002163
:1011200080B500AFFFF7A4FFFFF78EFFFFF7A6FF24
:1011300000BF80BD80B500AFFFF7F2FF00BF80BDEC
:1011400080B48DB000AF494BFB62494BBB62352385
:101150007B62FB6A1A1DFA621B683B62FB6A1A1DFE
:10116000FA621B68FB61FB6A1A1DFA621B68BB61AD
:10117000FB6A1A1DFA621B687B61FB6A1A1DFA6220
:101180001B683B61FB6A1A1DFA621B68FB60FB6A05
:101190001A1DFA621B68BB60FB6A1A1DFA621B68A3
:1011A0007B60BB6A1A1DBA623A6A1A60BB6A1A1D72
:1011B000BA62FA691A60BB6A1A1DBA62BA691A6021
:1011C000BB6A1A1DBA627A691A60BB6A1A1DBA62D2
:1011D0003A691A60BB6A1A1DBA62FA681A60BB6A79
:1011E0001A1DBA62BA681A60BB6A1A1DBA627A68B6
:1011F0001A607B6A013B7B627B6A002BA9D1FB6A88
:101200001A1DFA621B683B62FB6A1A1DFA621B68B0
:10121000FB61FB6A1A1DFA621B68BB61FB6A1A1D3F
:10122000FA621B687B61FB6A1A1DFA621B683B61EC
:10123000BB6A1A1DBA623A6A1A60BB6A1A1DBA62A0
:10124000FA691A60BB6A1A1DBA62BA691A60BB6A87
:101250001A1DBA627A691A60BB6A1A1DBA623A69C3
:101260001A6000BF3437BD4680BC7047ECAF000049
:1012700000C0002180B582B000AF064B7B604FF408
:1012800081620549786807F075F800BF0837BD46E8
:1012900080BD00BF1C040021A0B6000080B400AFD8
:1012A00000BFBD4680BC704780B485B000AF234B03
:1012B000FB60234BBB60234B7B60BB685033002239
:1012C0001A70BB68393301221A70BB6835330222A9
:1012D0001A70BB68373303221A70BB686E3304225E
:1012E0001A70BB686B3305221A70BB684133062243
:1012F0001A70BB680D3307221A70BB682B330822A3
:101300001A70BB682C3309221A70BB682D330A226D
:101310001A70BB6830330B221A70FB680C221A70EB
:10132000BB6838330D221A707B680433064A1A6092
:1013300000BF1437BD4680BC704700BF3803002192
:1013400040030021BC030021A506002180B500AFA9
:10135000FFF7A4FFFFF78EFFFFF7A6FF00BF80BDDA
:1013600080B500AFFFF7F2FF00BF80BD80B48DB045
:1013700000AF314BFB62314BBB6220237B62FB6AC7
:101380001A1DFA621B683B62FB6A1A1DFA621B682F
:10139000FB61FB6A1A1DFA621B68BB61FB6A1A1DBE
:1013A000FA621B687B61FB6A1A1DFA621B683B616B
:1013B000FB6A1A1DFA621B68FB60FB6A1A1DFA625F
:1013C0001B68BB60FB6A1A1DFA621B687B60BB6A04
:1013D0001A1DBA623A6A1A60BB6A1A1DBA62FA69C1
:1013E0001A60BB6A1A1DBA62BA691A60BB6A1A1D12
:1013F000BA627A691A60BB6A1A1DBA623A691A60DF
:10140000BB6A1A1DBA62FA681A60BB6A1A1DBA6210
:10141000BA681A60BB6A1A1DBA627A681A607B6A77
:10142000013B7B627B6A002BA9D100BF00BF343730
:10143000BD4680BC704700BFA8BA000000800021F4
:1014400080B48DB000AF494BFB62494BBB62352382
:101450007B62FB6A1A1DFA621B683B62FB6A1A1DFB
:10146000FA621B68FB61FB6A1A1DFA621B68BB61AA
:10147000FB6A1A1DFA621B687B61FB6A1A1DFA621D
:101480001B683B61FB6A1A1DFA621B68FB60FB6A02
:101490001A1DFA621B68BB60FB6A1A1DFA621B68A0
:1014A0007B60BB6A1A1DBA623A6A1A60BB6A1A1D6F
:1014B000BA62FA691A60BB6A1A1DBA62BA691A601E
:1014C000BB6A1A1DBA627A691A60BB6A1A1DBA62CF
:1014D0003A691A60BB6A1A1DBA62FA681A60BB6A76
:1014E0001A1DBA62BA681A60BB6A1A1DBA627A68B3
:1014F0001A607B6A013B7B627B6A002BA9D1FB6A85
:101500001A1DFA621B683B62FB6A1A1DFA621B68AD
:10151000FB61FB6A1A1DFA621B68BB61FB6A1A1D3C
:10152000FA621B687B61FB6A1A1DFA621B683B61E9
:10153000BB6A1A1DBA623A6A1A60BB6A1A1DBA629D
:10154000FA691A60BB6A1A1DBA62BA691A60BB6A84
:101550001A1DBA627A691A60BB6A1A1DBA623A69C0
:101560001A6000BF3437BD4680BC7047A8BE00007B
:1015700000C0002180B485B000AF78607B68FB605C
:1015800000E000BFFB685A1EFA60002BF9D100BFD3
:1015900000BF1437BD4680BC7047000080B582B0E4
:1015A00000AF78600D4B1B68002B13D00B4B1B68F2
:1015B0007A68D1B20122184602F054FF0848FFF7BA
:1015C000D9FF064B1B687A68D1B20022184602F098
:1015D00049FF00E000BF0837BD4680BD200900205C
:1015E00060E3160080B400AF044B00221A80044B65
:1015F00000221A7000BFBD4680BC7047A00A0020C0
:101600006009002080B483B000AF0346FB710D4B2E
:101610001B88B3F59F7F0FD80A4B1B885A1C91B2C9
:10162000084A11801946084AFB795354054B1B8818
:101630001A46054B0021995400BF0C37BD4680BCAB
:10164000704700BFA00A00206009002080B582B06A
:1016500000AF786006E07B685A1C7A601B781846F9
:10166000FFF7D0FF7B681B78002BF4D100BF00BFD1
:101670000837BD4680BD000080B586B000AF7860F9
:101680000B237B617B695A1E7A6118333B4400222D
:1016900003F8102C7B68002B22D17B695A1E7A61DB
:1016A00018333B44302203F8102C19E07968144BAE
:1016B000A3FB0123DA0813469B0013445B00CA1AFC
:1016C000D2B27B69591E79613032D2B218333B44B1
:1016D00003F8102C7B680A4AA2FB0323DB087B601B
:1016E0007B68002BE2D17B69013307F108021344C8
:1016F0001846FFF7ABFF00BF1837BD4680BD00BFDF
:10170000CDCCCCCC80B582B000AF78607B68002BAC
:1017100008DA2D20FFF776FF7B685B421846FFF75B
:10172000ABFF03E07B681846FFF7A6FF00BF083752
:10173000BD4680BD80B582B000AF0346FB71FB792A
:101740001B09DBB203F00F03084AD35C1846FFF70E
:1017500059FFFB7903F00F03044AD35C1846FFF7E7
:1017600051FF00BF0837BD4680BD00BF5CC500000B
:1017700080B500AF0B4B1B68002B0ED00A4B1B88AB
:10178000002B0AD0074B1B68074A128807491846E6
:1017900003F096FE0620FFF701FFFFF723FF00BFCF
:1017A00080BD00BF30090020A00A00206009002091
:1017B00080B582B000AF7860FFF714FF7868FFF75C
:1017C00045FFFFF7D5FF00BF0837BD4680BD0000CD
:1017D00080B483B000AF0346FB71FB79042B17D8AC
:1017E00001A252F823F000BFFD170000011800000D
:1017F00005180000091800000D180000074B08E04C
:10180000074B06E0074B04E0074B02E0074B00E004
:10181000074B18460C37BD4680BC7047C893000084
:10182000D0930000D8930000E0930000EC930000F8
:10183000F493000080B588B000AF7860FFF7D2FE67
:101840007B681B7D0E2B40F095807B685B7D7B77F2
:101850007B689B7D3B777B68DB7DFB767B681B7EB3
:10186000BB767B685B7F1B027A68927F13437B6148
:101870007B68DB7F1B027A6892F8202013433B6170
:101880007B6893F82130FB737B6893F82230BB733D
:101890005E48FFF7DBFE5E48FFF7D8FE5D4B1B6836
:1018A0001846FFF7E9FE5C48FFF7D0FE7B6893F926
:1018B00008301846FFF726FF5848FFF7C7FE7B7F22
:1018C0001846FFF737FF5648FFF7C0FE5548FFF7A9
:1018D000BDFE3B7F1846FFF77BFF03461846FFF728
:1018E000B5FE4F48FFF7B2FE4F48FFF7AFFEFB7E55
:1018F0001846FFF7C1FE4D48FFF7A8FEBB7E18460D
:10190000FFF7BAFE4A48FFF7A1FEFB7B1846FFF738
:10191000B3FE4848FFF79AFE7B685B7E1846FFF7E8
:1019200009FF7B689B7E1846FFF704FF7B68DB7E20
:101930001846FFF7FFFE7B681B7F1846FFF7FAFE8D
:101940003748FFF783FE3C48FFF780FE7869FFF7D2
:1019500093FE3A48FFF77AFE3869FFF78DFE384864
:10196000FFF774FEBB7B1846FFF786FE3548FFF78E
:101970006DFE44E03448FFF769FE2548FFF766FE38
:10198000244B1B681846FFF777FE2348FFF75EFEDF
:101990007B6893F908301846FFF7B4FE2B48FFF731
:1019A00055FE7B681B781846FFF7C4FE1C48FFF7FE
:1019B0004DFE2748FFF74AFE7B681B7D1846FFF760
:1019C0005BFE2448FFF742FE0023FB8309E0FB8B0C
:1019D0007A6813445B7D1846FFF7ACFEFB8B01333E
:1019E000FB837B681B7D1A46FB8B934204D21A4B08
:1019F0001B88B3F59A7FEAD31848FFF727FEFFF755
:101A0000B7FE00BF2037BD4680BD00BFFC9300007D
:101A10000C9400005C09002018940000249400003D
:101A20003094000034940000409400004C94000076
:101A30005894000064940000709400007C940000AE
:101A4000889400009494000098940000A8940000EA
:101A5000B4940000BC940000A00A0020C8940000C8
:101A600080B582B000AF78603960FFF7BBFD0A48EF
:101A7000FFF7ECFD7868FFF7E9FD0848FFF7E6FDA2
:101A80003868FFF7F9FD0648FFF7E0FDFFF770FE45
:101A900000BF0837BD4680BDD09400000C95000003
:101AA0009494000080B483B000AF78600B46FB7064
:101AB000FB780D2B02D1044B01221A7000BF0C37AA
:101AC000BD4680BC704700BF5809002080B5B0B04B
:101AD00000AF7860A849A94802F0FEFC0346A84A76
:101AE0001360A74B1B68002B01D100BFFDE7A44B7F
:101AF0001B6800220721184602F0B4FCA04B1B68AB
:101B000000220621184602F0ADFC0023C7F8BC30C5
:101B100020E09B4B1868D7F8BC3003F00103002B82
:101B20000CBF01230023DBB21A46072102F09AFC06
:101B3000934B1868D7F8BC3003F001031A4606210E
:101B400002F090FC8F48FFF715FDD7F8BC30013349
:101B5000C7F8BC30D7F8BC30052BDADD884B1B68E2
:101B600000220721184602F07DFC854B1B680022ED
:101B70000621184602F076FC03F04CFC824803F084
:101B800091FC814B00229A757F4B00225A757E4B47
:101B900000221A757C4B0022DA757B4B00225A70AA
:101BA000794B00221A70784B4FF4E1329A617649F2
:101BB000002003F057FC0346744A1360734B1B6804
:101BC000002B08D16E4B1B6801220721184602F03A
:101BD00049FC00BFFDE76E48FFF7EAFD684B1B6854
:101BE0006C49184602F058FC07F1A0031846FEF7AE
:101BF00065FA002387F8A03007F1A0031846FEF726
:101C0000ADFA034687F8B33097F8B330002B0CBF1A
:101C10000123002387F8B23097F8B230002B0CD0A4
:101C20005D48FEF79FFD0346002B02D05B48FFF79F
:101C3000BFFD5B48FFF7BCFD0EE0FFF7D3FC594842
:101C4000FFF704FD97F8B3301846FFF75BFD5648E1
:101C5000FFF7FCFCFFF78CFD0023C7F8B83000232A
:101C6000C7F8B430D7F8B4300133C7F8B4304F4BAD
:101C70001B78DBB2002B0AD04C4B00221A70D7F82D
:101C8000B4104B48FFF7ECFE0023C7F8B83097F8C4
:101C9000B230002B5AD007F10803982200211846D1
:101CA00006F07AFC00237B61364BBB6107F1080329
:101CB0001846FEF73BFE034687F8B13097F8B1307F
:101CC000002B10D10720FFF769FC3A4B1B6801334A
:101CD000384A136007F108031846FFF7ABFD0023ED
:101CE000C7F8B830BEE797F8B130072B17D1D7F84F
:101CF000B8300133C7F8B830D7F8B8304FF47A723B
:101D000002FB03F34EF65F229342ABD9D7F8B4102F
:101D10002948FFF7A5FE0023C7F8B830A2E797F8D7
:101D2000B1300A2B9ED0FFF75DFC2448FFF78EFCF4
:101D300097F8B1301846FFF7E5FC1B48FFF786FC23
:101D4000FFF716FD1E48FFF715FC8BE71D48FFF750
:101D500011FCD7F8B8300133C7F8B830D7F8B8302D
:101D60001D2B7FF67FAFD7F8B4101748FFF778FE2A
:101D70000023C7F8B83075E7EC03002024090020E1
:101D80002009002000093D0034090020300900200E
:101D900018950000A51A000000A1BC334C95000066
:101DA0007C950000C0950000949400005809002024
:101DB000F89500005C0900200096000008960000DD
:101DC00080841E000024F4003C96000080B500AF23
:101DD00002F0B8FD054802F0DBF90346002B01D004
:101DE00000BFFDE700F09EF800BF80BD70C5000099
:101DF00080B500AFFFF7EAFF00BF80BD80B584B0BB
:101E000000AF78600B46FB7000221421786802F066
:101E100029FB0023FB731CE000220A21786802F0F2
:101E200021FBFA78FB7BC3F1070342FA03F303F0CB
:101E300001031A460921786802F014FB01220A21E5
:101E4000786802F00FFB082005F02CFBFB7B0133C8
:101E5000FB73FB7B072BDFD900220A21786802F095
:101E600001FB01221421786802F0FCFA4FF42F7074
:101E700005F018FB00BF1037BD4680BD80B586B0A9
:101E800000AF134A07F10C0392E8030083E8030054
:101E900007F10C023B461146184602F01DFB786123
:101EA00000221421786902F0DDFA012005F0FAFA27
:101EB00001221421786902F0D5FA4FF40C7005F074
:101EC000F1FA786902F09AFA00BF1837BD4680BD72
:101ED0004C960000B0B58AB000AFFFF7CFFF104BB3
:101EE00007F10C041D460FCD0FC42B68236007F1CA
:101EF0000C023B461146184602F0EEFA7862B9230E
:101F000087F8233097F823301946786AFFF776FF71
:101F1000786A02F073FA00BF2837BD46B0BD00BF33
:101F20005496000080B500AFFFF7D4FF00BF80BD1E
:101F3000F0B4B1FA81F3B2FA82F45B096409F0B14A
:101F40000AB1456BFDB199B14D6BC5B10F6901691E
:101F5000066BB94218BFC9684FEA9505C5EB9605EF
:101F600018BF6D1A05F18055B5F1805F07D90123BF
:101F700032B1D168097B01F00F01022907D023405B
:101F80001846F0BC70472B46F0BC18467047416BB2
:101F900005691069166B85424FEA910218BFC16846
:101FA000C2EB960218BF521A02F18052B2F1805F62
:101FB000E6D8E4E71E4A30B41469136854B32469C0
:101FC000A04219D0ABB10125002401E01B686BB120
:101FD0001A699042FAD191F83E5093F83E2095420A
:101FE00015D9DCB11B680025002BF1D1002D08BFED
:101FF000214630BC08467047156991F83E4095F877
:102000003E50A5420CD2146983B10025E0E70025BB
:102010002C46DBE7002BECD00125D9E71C46E1E795
:1020200013B100252C46D3E71946E2E72146E0E745
:10203000680E00200021836810B41A88447DB2F530
:10204000C15F598017D012D9A2F56052063A012A11
:1020500009D85A7E61F382025A7604B92D211A8B6F
:1020600061F309121A83002310BC4375704740F6D0
:1020700002018A42F7D15A7C6FF382025A743CB152
:102080001A8A6FF309121A82002310BC4375704735
:102090002D211A8A61F309121A82002310BC43759C
:1020A000704700BF704700BF2DE9D04F04469246ED
:1020B0009B4604F0B9FD7CB1D4E90A89D4E90867EC
:1020C00048EA0A0249EA0B0346EA0A0847EA0B090A
:1020D000C4E90A23C4E90889BDE8D04F04F0ACBDC7
:1020E00038B50C46054604F09FFD23685BB100241B
:1020F0001A69954208BF1C461B68002BF8D104F0F2
:102100009BFD204638BD1C4604F096FD204638BD98
:1021100070B5054604F088FD1B4C064694F82C303B
:10212000206823EA050384F82C3038B3803004F0AB
:1021300025FC626805462AB102F1800004F01EFC0D
:102140000543EDB294F82C3003B935B13046BDE803
:10215000704004F071BD002BF8D1236A002BF5D03C
:102160005A6A9207F2D530461D6A04F065FD0022D6
:102170000221206AA8470023236270BD6268002AFA
:10218000E9D00546D8E700BFF00B00200720FFF795
:10219000BFBF00BF2DE9F84F076F04460D469046BC
:1021A000994607B1B847D4E91A6706EA080A07EA68
:1021B000090B5AEA0B032DD0DFF85CC000216346FF
:1021C00004E00131082903F1400319D0B3F93C00C0
:1021D000A842F6D11A699442F3D10CEB811090F821
:1021E0003F201206EDD5216FD0E9082322EA0A0527
:1021F00023EA0B06C4E91EABC0E90856816001E082
:10220000C4E91EAB002304F148002367BDE8F84F82
:1022100004F040B8BDE8F88F680C0020174B70B58B
:102220001B685B68D3E90164DD68D0B10CB30021A1
:10223000134A144B1160144A1A6016B105F07EF966
:10224000B0479CB10E4A1368002BFCD000231360EA
:1022500004B1A04705B1A847BDE870400B4805F0A0
:1022600031B9002EEDD0B047002CEBD1002DE9D1D3
:1022700070BD002DDBD1002EE0D170BD980E002086
:102280001C1004400010044051000706010007061E
:10229000F8B5154E1548376905F094F9144A044607
:1022A0001368156803F02003034005F460250AD085
:1022B0004FB138460022B761FFF7F6FE4FF4804178
:1022C0000C4804F063F92C4000D1F8BD0A4A002103
:1022D00092F86130094843EA544482F86140BDE80D
:1022E000F84004F053B900BF680E002020000E0033
:1022F0000C100440640F0020E00E0020980F002016
:10230000064B074A70B515685C6804F001F923466E
:1023100001462846BDE87040184700BF880E0020DF
:10232000980E00202DE9F04F264C83B024683CB174
:10233000A14202D10AE0A14207D02468002CFAD1C0
:10234000A046404603B0BDE8F08F0C4606469946CD
:102350002369DFF870A0B342174601914FF00008DF
:102360000AF1080B256808D0002FEAD02C46002D72
:10237000E7D023692568B342F6D100224FF080539D
:102380002046FFF791FEB9F1000F0AD121465046D1
:1023900001F012FE2146584601F0E2FD08F1010865
:1023A000E2E700224FF080732046FFF77DFE064BE8
:1023B000019A116993F82C20196242F0010283F806
:1023C0002C20E3E7680E0020F00B00202DE9F04FF1
:1023D00083B004468B469A469DF8309015460026F9
:1023E000002A40D104F020FCBBF1FF3F4FF0005722
:1023F000804640D052480021034604E001310829BC
:1024000003F1400327D0B3F93C205A45F6D11A69AD
:102410009442F3D100EB811B9BF83F301B063ED565
:1024200048490B695B4545D04B695B4542D04B46FB
:10243000524659462046FFF775FF80B3424B1A7843
:10244000012A51D01B78042B4ED04049404804F05B
:102450009DF8832400E00324404604F0EDFB204671
:1024600003B0BDE8F08F04F0DFFBBBF1FF3F4FF09E
:1024700080478046BED133490B6913B11B699C422A
:102480003AD04B699BB11B699C4210D1D1F814B072
:10249000BBF1000FDFD09BF83F301B06C0D40424F3
:1024A000404604F0C9FB204603B0BDE8F08FD1F8E8
:1024B00000B0EDE7086932463B460191FFF7F4FDB5
:1024C0000199324648693B46FFF7EEFD214B224811
:1024D000002D08BF184604F0F5FF0199B9F1000F6F
:1024E0000DD1BAF1000F23D18324404604F0A4FBA0
:1024F000204603B0BDE8F08FD1F810B0C8E70869F6
:1025000000224FF08073FFF7CFFD01990022486948
:102510004FF08073FFF7C8FD104BDBF8100093F805
:102520002C20186242F0010283F82C200199D8E790
:102530004B46096820460122FFF7F4FED4E700BFAE
:10254000680C0020680E0020880E00200200004069
:10255000640F00200100010401000204F00B0020C0
:1025600038B5114B194200D138BD012005F0C8FC27
:1025700001280FD032210D4B0D481B68B1FBF3F140
:10258000012938BF012104F0EDF9BDE838400848C1
:1025900004F078B90025074C07490848084A094B58
:1025A000256048601A6038BD04000020180500202E
:1025B000440C00201C100440880E0020BD35000093
:1025C000480F00200010044008B54FF0FF3004F021
:1025D0006DFF830700D408BD4FF40061BDE80840DB
:1025E000014803F0D3BF00BF640F00208A0000D46D
:1025F00070472DE9F041002440F60A0584B080467A
:102600002046FFF70BFE4849484B494A0C60012021
:102610001A6005F01BF90122464F40463D807C8040
:102620003B7B64F303033B737C607B7B62F30303BC
:102630007B73FFF7FFFCD8F80860344607E01A8880
:10264000AA42A2F6030105D0012903D91C466368FA
:10265000002BF4D1384A637B12686FF30303676081
:1026600063732AB1D3681B88A3F60303012B49D9EE
:10267000B8F83030002B2BD16946304604F0AAFF61
:10268000684605F04FF8284A1368002BFCD0002359
:102690002A4D13602A496B7B6960002B36D002F00B
:1026A000B7FB0028FBD002F0D7FB0020254B1E49CA
:1026B0001E4A5C68086016603CB19B68DB0704D565
:1026C000214B324618680121A04704B0BDE8F081D3
:1026D00008F130037B60002301207A7B98F83C10DE
:1026E00063F303027A7398F83D2063F3030160F308
:1026F0000302A8F83230C8F8343088F83C1088F863
:102700003D20B9E70022114B1A60B5E7012005F022
:10271000F7FB0128C9D00121637B0D4A61F3030354
:1027200063736A60C1E700BF1C10044000100440DE
:1027300001010E04480F0020680E0020880E0020C2
:10274000BD350000BCC50000980E0020600F0020C1
:1027500061250000042801D00020704710B5044610
:102760000E4804F00BF908B9002010BD0B4804F026
:10277000FBF80B4B1B6803FB00F0B0F5967FF3D220
:10278000064804F0EBF8052002F0C4F80122054BDE
:10279000214605485A7303F0F9FEE5E7440C002092
:1027A00018050020880E0020640F00202DE9F84F46
:1027B0000D4616461F46804603F03AFE2C4900227D
:1027C0000B4604E00132082A03F1400337D0B3F985
:1027D0003C40AC42F6D11C694445F3D101EB82196F
:1027E00099F83FE01EF0800FECD099F83F301B06BF
:1027F00025D5D9E9082346F00A0A47F0E04B02EA5A
:102800000A0503EA0B0655EA06031ED1D9F808208B
:10281000184B9A4205D0D9F80820C8F87020C9F89A
:102820000830C4E91AAB03F0C1FE4FF0FF3104F1E8
:10283000480003F0D5FCD4E91E01BDE8F88F03F091
:10284000B5FE02200021BDE8F88F03F0AFFED9E904
:1028500008450AEA04000BEA050124EA000225EA19
:102860000103C8E91E01C9E90823BDE8F88F00BFCC
:10287000680C00209521000010B5044604F0D4F93E
:10288000034A137823431370BDE8104004F0D4B911
:10289000D90E00202DE9F8430024244EDFF89C9047
:1028A000234FDFF89C803519A87A012804D0203402
:1028B000602CF8D1BDE8F88395F90930113300FA9E
:1028C00003F3DA43C9F800203A6813433B6095F9F3
:1028D00009309840C0B2FFF7CFFF98F80030022BC4
:1028E0000ED0112395F9091096F861208B401343FF
:1028F000DBB200210F4886F8613003F047FED6E7CF
:102900000D48204404F0DEFDC0B20128E9D1A869D9
:1029100040B198F80030022BE3D104F0D3FDC0B2EF
:102920000128DED10223AB72C1E700BFE00E002018
:102930000C100440980F0020F00E002008100440F6
:10294000880E002038B5054604F06EF9084B0446A1
:10295000187820EA050018701B781B0703D408219B
:10296000044803F013FE2046BDE8384004F064B983
:10297000D90E0020640F0020054B9A8BDB8B12B21E
:102980001BB29A4200D070470820FFF7DBBF00BFA0
:10299000680E0020F8B54E4DAC68002C3FD0E268C0
:1029A0008AB11388A3F60303012B5FD9082304E03F
:1029B0001188A1F60301012958D95268013B12B1CF
:1029C00013F0FF03F4D1D4E90A0100260027A3681D
:1029D000C4E90A6763B1002201F0E24352EA030648
:1029E00004BF02460B46A668B4F93C102069B04704
:1029F00004F01AF900260746EB8B36480133C3F37F
:102A00000B03EB8384F83F6001F07EFA384604F054
:102A100013F9EA8BAB8B12B21BB29A4200D0F8BD0D
:102A20002D4A2E4B12681F6892F8A4205C68B242AF
:102A300014BF07200520FFF76BFB002F45D097F848
:102A4000A4301BB387F8A4602CB194F8A43013B35E
:102A5000002384F8A430AA8BEB8B12B21BB29A42EB
:102A6000DDD1BDE8F8400820FFF76CBF1068516861
:102A70002669D2F808C0D76830637163C6F838C0D9
:102A8000F76310695169306471649CE73B684CB12D
:102A900094F8A4201AB92268934238BF1346002242
:102AA00084F8A420002BD6D05A1CB8D00C4A0D486C
:102AB0001168B3FBF1F1012938BF012103F052FF86
:102AC000BDE8F840074803F0DDBE002CBDD1C2E7E9
:102AD000680E0020700E0020980E0020F00B0020E1
:102AE00018050020200C00202DE9F843044604F0CE
:102AF0009BF8A37A05461BB301221D4994F90930BE
:102B0000096802FA03F6CF07F0B21ED400234FF093
:102B100000084FF00009C4E90033C4E90489154AEC
:102B2000A3722372A36192F8603092F8621033436B
:102B300082F8603011B1013982F86210FFF702FFAC
:102B40002846BDE8F84304F077B80B490968090640
:102B5000DCD5113302FA03F3DB43084E084F31682A
:102B6000194031603B6094F9093002FA03F6CDE771
:102B700040210840E00E0020000004400C100440FA
:102B8000081004402DE9F04B2F4D82B095F86130CC
:102B900043B1002495F861302341DB070FD40134A1
:102BA000032CF7D195F8613013B902B0BDE8F08B72
:102BB0000021264802B0BDE8F04B03F0E7BC95F8D1
:102BC000616004F031F8112295F86130A24023EAE7
:102BD000020385F8613004F02FF86201A818837AA7
:102BE000F6B2002BDED0102190F90970184BA140ED
:102BF0003B449B003142AC58D3F80090D0F804809D
:102C00000DD1037A022B15D0FFF76EFFCDF800909F
:102C10003946204600224FF00063C047C2E7FFF765
:102C200063FF002339460093204600224FF00073D3
:102C3000C047B7E74FF0000CD0E9042302F0805BF7
:102C40005BEA0C03E0D0E1E7E00E0020980F0020E3
:102C5000250C01102DE9F043754E904689B032687D
:102C60000F46002900F0DE80B8F1000F00F0DE8092
:102C700001260446087806FA00F0104050D00021E2
:102C800040461D4604F0E0FDC4E9017803F0CCFFA6
:102C9000DFF81092804699F80070B74200F2C080C9
:102CA000002F40D0634A731C404642F8264089F802
:102CB000003003F0C1FF002D00F09280D5E90063E1
:102CC0004FF4FA770122A869298AE76026606062DA
:102CD000E1826275002B00F0998000222361227549
:102CE000554BEA68C4E90733A36102B1E2616B693D
:102CF00003B12362AB6803B1A3617822002104F120
:102D0000300005F049FC002104F1480003F050FABE
:102D100000234A491A4604F1800003F0F5FD2046DD
:102D200009B0BDE8F08301F00DFE454A454E136839
:102D300001A843F00203136003F052FB737801AA69
:102D400041494248039303F053FB01AA40494148DB
:102D500003F04EFB01A803F0CBFF96F800C001ABD7
:102D60003D4A19213D48CDF808C003F07DFF01AB75
:102D70003B4A1A213B4803F077FF3B463A463A4923
:102D80003A4803F0C1FD3B463A463949394803F019
:102D9000BBFD3B46384A0421384801F005FDB378B5
:102DA000002B39D1364801F0A3F8364801F0A0F8DD
:102DB000002307260521344A344813600360344A4F
:102DC000344813701373037093605373324B33485A
:102DD0005360334B80F86060196099F8006061E7D8
:102DE0004FF0FF324FF49D734FF4FA700121CDE99B
:102DF000055502956562CDE903550795019222605C
:102E0000ADF81430E382E060617501AD40F6C412A4
:102E100001232261237563E70E2001F035FEC1E72F
:102E200003F00AFF002009B0BDE8F083404677E7D1
:102E3000D4210840F00B0020A52000008D210000C7
:102E400000200940BCC5000001230000640F0020E1
:102E5000852B0000980F0020CD320000A00E00202E
:102E600091220000BC0E0020053B0000440C002015
:102E700079290000200C002055270000CC0F0020ED
:102E8000700E0020680E0020600F00205C0F0020F4
:102E9000880E0020D90E0020A1340000E00E002092
:102EA0009C0E0020D80E0020F8B5404D2B78002B4A
:102EB0005CD03F4E0446B28BF38B12B21BB29A42E7
:102EC00045D103F0B1FE3B4B06461A6804F14807B2
:102ED000A2424FF000020CBF1A605A602B78013BEF
:102EE000DBB22B700BBB344B344D1B782C60022BA8
:102EF00049D0334803F080FA324803F0A1FE32484B
:102F000003F07AFA314803F09BFE314803F0ACFC41
:102F1000304803F0A9FC304801F036FF2F4B9B7876
:102F200023B10E2001F0A2FC00E0244D2B683046B6
:102F3000A34204BF00232B6003F07EFE384603F05B
:102F40004DF904F18000BDE8F84003F08DBC314636
:102F5000FFF7C6F858B1B0F93C100029B1DB0A22DE
:102F60004FF0E0432046FFF721FCAAE7F8BD3369A4
:102F700013B11B699C4215D019492046FFF7B0F8E0
:102F800000289ED0E7E70820FFF7DCFC304603F07E
:102F900053FE4FF0FF31384603F022F903F044FEB0
:102FA0000646A6E7306900288BD0D4E7D80E00206B
:102FB000680E0020F00B0020880E0020980E0020E4
:102FC000640F0020A00E0020980F0020BC0E0020EF
:102FD000440C0020200C0020CC0F0020BCC50000B9
:102FE000700E00202DE9F04803F01EFE1A4B1B78EE
:102FF000022B2AD003F020FE04F046FC10F500342A
:1030000041F100056B016001001B43EAD46161EBF3
:1030100005018B018201121A43EA906363EB0103FD
:10302000D90041EA5271D0000022061941EB050790
:103030000A4D3C022969350244EA1664A81844EB9B
:1030400001010C462046BDE8F088054B1C6803F0E2
:10305000F3FD2046BDE8F088880E0020480F0020D0
:10306000043004401D4B1B6853B1D9680A7B02F041
:103070000F02022A08D00023012203601046704785
:103080001A4603601046704770B5044614481A6922
:1030900090F86230D08A03EB8303166903EB830355
:1030A00003448D681E44FFF79DFF281A800806F52B
:1030B0007A73984207D9B0F1405F04D2831B012B89
:1030C00038BF012300E00023064A23601168012273
:1030D000B3FBF1F31046236070BD00BF680E002003
:1030E000E00E002018050020F0B5424C83B02568A2
:1030F00015B363690BB103B0F0BD23692A698BB1C5
:1031000023691B699342F6D195F83F30D906F2D571
:103110002369DB685B88002BFAD02369DB685B8856
:10312000012BF5D0344E336893420BD04FF48061BD
:10313000324803F02BFADEE70221304803F026FA8A
:1031400003B0F0BD01A8FFF78DFF20B1019B13B1C3
:103150002369002B46D00820FFF78EFB95F83F30FF
:103160002448DA0629D500F0CFFE6061D5E90614BF
:10317000C843234B18601A681142FBD1E043214B2E
:10318000214A1F68ED6839431960106053F8082C14
:103190002846144343F8084C04F094F92B88B3F5FF
:1031A000C15F13D00DD840F6020293420ED04FF00B
:1031B0008041124803F0EAF99DE700F0A5FE206186
:1031C000D4E7A3F56053063B012BF0D80F4B5C68A6
:1031D000002CECD09B68DB07E9D52A46306801213A
:1031E000A047E4E76369002BB5D10820FFF7AAFBED
:1031F00081E700BF680E0020980E0020640F0020B9
:10320000101004401410044008100440BCC5000015
:103210002DE9F04F0025284B2F461C4683B01A1D80
:10322000CDE90032DFF89C90DFF89C80A3F1100A12
:1032300023687BB123684FF0000B986904F036F9DE
:1032400006465B4620683246FEF72EFF16F00A0F50
:1032500016D17EB915B9019C0125E9E71FB13946A0
:10326000164803F093F9FFF715FB03B0BDE8F04FE4
:10327000FFF73ABF236847F48047CAF81830E9E7F8
:103280002268D9F8003092690D4822F0020223EA40
:103290000203C9F800302268D8F80030D26947F03C
:1032A000020723EA0203C8F80030216800F058FE44
:1032B000C4F800B0CEE700BF780E0020640F0020F5
:1032C000700E0020141004400C10044038B54FF06C
:1032D000FF3004F0EBF8184C184B626805469A4230
:1032E0000AD0174B1D4200D138BD4FF00051BDE848
:1032F0003840144803F04AB900221349134803F038
:1033000001FD0222124B22701868826800F1300120
:1033100002E08B4203D01A465368002BF9D1537B4D
:103320001B0704D140F60903428E9A42D9D0FFF719
:10333000B1FAFFF7D9FED4E7880E0020BD350000B2
:1033400002000040640F002011320000A00E002097
:10335000980E00202DE9F04F002485B004608046CF
:1033600003A8FFF77FFE2E4D01904FF0FF36204659
:103370002C46DFF8B0B0DFF8B0A005F16007A37A03
:1033800043B3237A022B45D0DBF8001095F8622076
:10339000CB8A086902EB8202034402EB820203EB50
:1033A000020962690092FFF71DFE009A101A800858
:1033B00009F57A72904204D9B0F1405FA0EB09039D
:1033C0001DD30023DAF800200120B3FBF2F39E4264
:1033D00028BF1E462034A742D1D1019B3BB1039B9D
:1033E00088B90198C8F8003005B0BDE8F08F002812
:1033F000FAD00120C8F8006005B0BDE8F08F012BBD
:1034000038BF0123DEE79E4228BF1E460120C8F8D0
:103410000060F1E7019E002EEBD00026E9E700BF37
:10342000E00E0020980E00201805002010B5194B62
:1034300082B01A78022A24D01A78012A15D01B7873
:10344000042B12D003F0F0FB044601A8FFF782FF23
:10345000E0B1019959B9104803F080FA04210F48EE
:1034600003F094F8204603F0E7FB02B010BD0129F9
:1034700038BF0121084803F075FA074803F002FA43
:10348000F0E7192003F04CFC02B010BD024803F035
:1034900065FAE7E7880E0020440C0020640F002046
:1034A00070B511F002050C4651D14A0700D470BD29
:1034B00004F0EAF9334B344A1B681060334E002B9A
:1034C00051D01C6933685BB19C4209D0636A5B07C9
:1034D00004D52A46236A04212046984701236375B0
:1034E000346062682A4B127802201A6001F012FAE6
:1034F000112001F0C9FA0122264B274C9B7822703B
:10350000002B36D033685B689A68002A35D00020DB
:103510002249234B234A08601A6007200021224BCE
:10352000224A1860224B10681160186819601368ED
:10353000204943F0804343F0020313601A20616086
:1035400003F08CFBBDE87040192003F087BBFFF748
:1035500021FA0C4B9B6843B144F002011648BDE8C8
:10356000704003F013B83468BBE7BDE87040FFF764
:103570005DBF0E2001F088FAC4E7DB68002BC6D1DE
:10358000CBE700BF680E0020600F0020980E0020DF
:10359000D0210840BCC50000880E00201C1004404B
:1035A000001004405100070600000460141004409D
:1035B00018100440ED250000640F00202DE9F047AD
:1035C0004B0484B00C467CD48F0039D4880700F1BA
:1035D000CC80610500F1D280260540F1A280904E9A
:1035E0003068826800F1300102E08B4203D01A4655
:1035F0005368002BF9D1537B1D070BD140F609030B
:10360000428E9A4206D1C56900224FF000736FF4D2
:103610008071A847834D2B68002B40F06E810022FB
:103620008149824803F06EFB0222814B24F400643E
:103630001A70FFF7FBFE002C3CD104B0BDE8F08708
:10364000054603F0F1FA0646042004F059FC002870
:103650004BD1304603F0F0FA714B1868826800F1E4
:10366000300102E08B4203D01A465368002BF9D197
:10367000537B1E0713D140F60903428E9A420ED1A6
:103680004FF00073EE6900226FF480712846B04756
:10369000684B1B68002B00F08180FFF7C7FE24F009
:1036A0000054AE69284600224FF080630021B047E5
:1036B000002CC2D02146604802F068FF04B0BDE88B
:1036C000F08703F0B1FA5B4B01469D693DB1D5E946
:1036D0000A6706F00A0207F0E04313432BD00846BE
:1036E00003F0AAFA24F48044A5E72B7D002BB0D088
:1036F000524B1F68002FACD0D5F8108004F0C4F8EE
:1037000040F69802C31B1B0B43453CBF43445B0878
:103710002B61A3F59673934284BF40F6C4132B61CB
:1037200097E7210700F1F380630084D5FFF77EFE61
:1037300024F080447FE7D5E90A89D5E90A2323EA02
:10374000090722EA0806C5E90A6703F075FAAB68BB
:10375000002BC7D058EA0903C4D0AE682869A98FE6
:1037600042464B4609B2B047BCE7FFF713F9314B6D
:103770009B68002B9ED124F002045CE703F054FA0E
:103780002B4B05461A78022A02D12A4A116941B107
:10379000284603F051FA24F480644CE744F0020414
:1037A0007DE7D2F81490B9F1000FF1D11768002F1E
:1037B000EED04FF0040A4A4621491C4883F800A085
:1037C00003F0A0FA284603F037FA1E4803F0C6F8C3
:1037D00004F05AF83B69DFF84C805A6A104E5207E1
:1037E000C8F80000336004D54A4651461D6A1846A1
:1037F000A8470120FEF712FD00250123D6F800A0FE
:10380000114A124812490560116050468AF8153075
:10381000FEF710FCDAF8089040F60A02484621E06C
:10382000980E00205C0F002011320000A00E002036
:10383000880E0020680E0020640F0020600F00201A
:10384000C9250000200C0020001004401C1004407A
:1038500001010E0419889142A1F6030505D0012D3E
:1038600003D918464368002BF4D14FF0010C002314
:10387000FA68417B12886CF30301A2F603026245E9
:103880004173436040F21181BAF83020B2B1427BFB
:103890009AF83C509AF83D10AAF83230CAF8343001
:1038A00063F3030563F303026CF303010AF13003CE
:1038B0008AF83C508AF83D10436042736946484696
:1038C00003F088FE684603F02DFF794A1368002B49
:1038D000FCD000207749784D4B6810601060C5F827
:1038E0000090002B3FF457AF8A68D7077FF553AF9E
:1038F0004A463068012198474DE703F0C5FF002292
:103900002B683168C31A1B0BCB602A6087E603F073
:103910008BF96A4D80462B78022B07D0404603F086
:103920008BF9FFF783FD24F0080484E6644F3B69BC
:10393000002BF3D17B69002BF0D1624B1A78120770
:10394000ECD41B781B06E9D46846FFF703FD10B1E1
:10395000009B002BE2D0DFF8A8A19AF8613003F0B9
:10396000FF06002BDAD14FF0010901E0602E0FD0E5
:103970000AEB06039A7A2036002AF7D093F9090059
:1039800083F80A9009FA00F0C0B2FEF7DBFFEDE71A
:10399000032300264C482B7002F0E0FF404603F062
:1039A0004BF94A4A4A4B116816601A68494932462F
:1039B0001E60494803F0A6F9304603F047FF03F0C4
:1039C00063FF464BAA681B68C31A1B0BD9438A4284
:1039D0008CBF4FF0FF339B182A7BAB6022B1404A6B
:1039E0001268B3EBC22F07D93E4B1B68DE073ED4EB
:1039F000012200232A73AB6003F07AFD00222D4ED2
:103A0000394973680A6033B1B168890703D537490A
:103A1000086802219847022000F0D8FE112000F02B
:103A200025FF334B1B7893B1B378E3B16B7BA3B91C
:103A300000232B70F88BBB8B2E4A1BB200B298422E
:103A40000CBF072002206A60FEF762FB69E7274B84
:103A50001868483002F01EFCE6E7002305206B736F
:103A600000F0B4FEE4E70E2000F000FFDEE7224B9A
:103A70001B681806BCD5002340F6090101201F4A27
:103A80000B4E11805380517B60F303015173117B06
:103A9000094863F303011173536033600260538874
:103AA00003F44063002BFAD0A2E7C8F8003005E722
:103AB0001C100440BCC5000000100440880E00200B
:103AC000680E0020D90E0020200C002014100440A5
:103AD0000C100440CD320000A00E0020600F00202A
:103AE0009C0E00204021084000000460980E002039
:103AF000D80E0020A134000000000440480F002030
:103B0000E00E0020054A064B52689A4203D0042179
:103B1000044802F03BBDFFF789BC00BF880E0020BF
:103B2000BD350000640F00202DE9F04F83B09246B0
:103B300007468B46019303F077F8002280462E4E0D
:103B40009501741994F83F3001321B060AD5082AF2
:103B5000F6D16FF00104404603F06EF8204603B042
:103B6000BDE8F08F254802F0F9FEDDE90C232021A5
:103B700023480B40C4F80CB0002184F83EA002405A
:103B80004FF0FF3C80204FF0000A4FF0000B42F056
:103B90000202C4E906231B4A019BB2F81CE0C4E9F7
:103BA0000C110EF1010ECEF30B0EA2F81CE0A36077
:103BB000B2F81CE0276184F83F00A4F83CE0C4E9B7
:103BC00008ABC4F838C0104687F8A410214601920B
:103BD00000F0C6F9019A1368A34209D03544B5F93B
:103BE0003C40404603F028F8204603B0BDE8F08F83
:103BF000FFF71CFCF2E700BF680C0020200C00203F
:103C0000FFEFFF9F680E00202DE9F04F804689B03E
:103C100006938B46914603F007F8DFF874A20590EF
:103C2000DAF800304345049304BFDAF80430049313
:103C3000049B33B103F1800002F0A0FE002840F0A5
:103C4000138100208E4E8501741994F83F200130B5
:103C5000110604F13F030AD50828F4D16FF00105DD
:103C6000059802F0E9FF284609B0BDE8F08F8548C5
:103C7000079302F073FEDDE912232021824F83486F
:103C80000B400240B88BCDE902230130069BC0F304
:103C90000B00B88399F80400A360DDE90223C4E9AE
:103CA000062300220023002184F83E00B88BC4E9DB
:103CB0000823A087D9F80020D9F80800079BC4F88A
:103CC0000CB0C4F81080C4E90C111970A063002A6C
:103CD00078D19BF80C3003F00F03022B03D1DBF8F3
:103CE000083072191363DBF80420002A00F0BA8050
:103CF000082300E00A465168013B11B113F0FF03AD
:103D0000F8D1138803F47C43B3F5305F5CD0DDE970
:103D10000223711942F00202C1E90623DAF82030C9
:103D2000434562D0049B002B35D057494046D7F815
:103D300000B0FEF7D5F9014600285FD0A14601E0AA
:103D400021468CB10C6848462246FEF7F1F800285F
:103D5000F6D0A3464C46BBF1000F1CD05A46214674
:103D6000494800F0E5F81AE04C4604982146FEF771
:103D700021F900284ED084420DD00123721992F807
:103D80003E20B0F93C10D21AB2FA82F20069520910
:103D90000093FEF71BFB21463B4800F0E1F80021B1
:103DA000354495F83F303A6843F08003A24285F8E5
:103DB0003F30B5F93C5088F8A4107FF451AFFFF7BD
:103DC00035FB4DE7626384E7731993F83F20DDE923
:103DD000020142F0100240F00800C3E9060183F836
:103DE0003F20DAF8203043459CD19AF82C30DA078E
:103DF00044BF23F001038AF82C3093E73A685AB3A2
:103E000039692046FEF794F830B321461E4800F089
:103E1000BDF8C4E77319DB681B7B03F08F03022B2B
:103E2000B9D17A6842B93B69002BB4D039692046D0
:103E3000FEF77EF80028AED1BB8B9AF82C20013B10
:103E4000C3F30B0342F00402CAF82080BB838AF854
:103E50002C206FF0020503E7BBF1000F85D0594617
:103E6000A1466FE75A464CE79AF82C30CAF82080F2
:103E700043F004038AF82C306FF00205F0E600BF2F
:103E8000680C0020200C0020680E0020FFEFFF9F30
:103E9000F00B0020002901DBFEF788BC0020002188
:103EA000704700BF30B583B0DDE90645CDE9004578
:103EB0000446FFF739FE011E08DB20460A224FF0B8
:103EC000E04303B0BDE83040FEF770BC00200021A5
:103ED00003B030BD00234FF0FF314FF49D720361FA
:103EE0000160C0E90133C360C0E905330282704755
:103EF00010B5044602F098FE0023C4E90033BDE883
:103F0000104002F099BE00BF38B5054602F08CFEA5
:103F10002C6824B123682B602BB100225A6002F078
:103F20008BFE204638BD6B6002F086FE204638BD11
:103F300070B514460D46064602F076FE6368C5E984
:103F4000004363682BB11D606560BDE8704002F0FE
:103F500073BE35606560BDE8704002F06DBE00BFA5
:103F600038B505460C4602F05FFE00226B68C4E9D6
:103F700000232BB11C606C60BDE8384002F05CBED1
:103F80002C606C60BDE8384002F056BE38B505467E
:103F90000C4602F049FE00222B68C4E900322BB126
:103FA0005C602C60BDE8384002F046BE6C602C605E
:103FB000BDE8384002F040BE38B50C46054602F078
:103FC00033FED4E900323BB15A6062683AB1136003
:103FD000BDE8384002F030BE6A60002AF7D12B609D
:103FE000BDE8384002F028BE2DE9F04102F090FA19
:103FF0000024074601260A4DDFF8288006FA04F35C
:104000003B4206D058F8240018B103680BB1214692
:10401000984701342B68E4B29C42EFD9BDE8F081A7
:1040200074100020E8130020034A044B1168044870
:10403000196002F0ABBA00BFE0200240E02002604D
:104040004010002000292DE9F047A8BF8946CFB2D3
:1040500007F1805505F501354FEA8505494CB8BF94
:1040600081F020492B68B8BF89F4C049044000F4AE
:10407000E02223EA000104EA0904B2F5E02F8046B9
:1040800044EA01045FD02AB989EA030300F0807290
:1040900013420BD004F4E023B3F5A02F3ED0B3F5C8
:1040A000C02F03D124F4E02444F4A0240126364B8D
:1040B000BE401E6002F0B8FDDFF8D0A0C4F30722B6
:1040C000C4F30743240E6A70AB70EC7002F0B4FDC9
:1040D000DAF8004008F40002344024D118F4800FCC
:1040E00006D007F1804303F50833C9F380511970F6
:1040F00082B102F099FD254A19F4000F13680146B8
:1041000023EA060327D0214A33430846136002F00E
:1041100093FD4CB91C4B1E60BDE8F08724F4E024ED
:1041200044F4C024C2E7EAB918F4800FF2D007F1D2
:10413000804707F50837C9F38059134B87F800907B
:104140001E60BDE8F087E301B0D504F4E023B3F5C9
:10415000A02FA4D1E2E7136002F06EFD0A4B1E60AF
:10416000BDE8F08702F060FDDAF8003019F4000FC6
:10417000014623EA0603C6D1CAF8003002F05CFD0E
:10418000D2E700BF007F077FE0200260D02002401E
:104190002DE9F04F8BB0824600F0D4FB694B1B78C1
:1041A00002F002FF0E2800F2B480DFE800F0AEAEAD
:1041B000B2B2B2B2B2B2B2B2B2B2AEB90800052374
:1041C00004209C461F27604A1360604B1B68C3F3A2
:1041D0008153012B04D15E4A1268120E93401F4393
:1041E000DFF8A081FF2143465A4ADFF89C91156809
:1041F00008F1010205F07F050544C9F800502A4482
:1042000003F8011B9342FBD19AF800300024FE2BE7
:1042100017D0504622460126FF2B06FA03F10AD09A
:104220009D42C0F084809C4500F2818039427ED15D
:1042300008F803200C4350F8043F0132DBB2FE2B98
:10424000EAD1092000F020FC434B01214348C3F888
:1042500000A0002501F0ACFFDFF830B1012207E03B
:1042600004234BF82530D9F800300135AB4224D374
:1042700002FA05F33B42EEB2F2D1234218BF18F81E
:10428000053046F4C04106F1805606F501361ABFE6
:104290005AF8231032483248B6000192FFF7D2FE96
:1042A0003368019A23F03F03336000234BF8253035
:1042B000D9F800300135AB42DAD20024294D03A8E9
:1042C00002F016FD287803AB274A102104902748F6
:1042D00002F0CAFC06A802F083F86B6806AA24491B
:1042E0002448CDE9083402F083F80122204622490F
:1042F000224E0B68224D23F47C5343F400530B6091
:1043000032602A600BB0BDE8F08F02F033FE022865
:1043100011D00D4B0027D3F800C00CF1FF3054E74B
:104320000323094A9C461360022007274DE7022019
:104330000BB0BDE8F08F0123034A9C461F46136073
:10434000002042E76414002020100020B43F0050F9
:10435000A83F005044130050E00F0020241000201C
:10436000007FC7679CC500002940000004100020A2
:10437000E93F000040100020003009400C40094097
:1043800008000940E40F002074100020E81300200A
:1043900018B3012342688B4013421ED010B50C465F
:1043A000002122EA0303114A4360135D104AFF2BE8
:1043B00042F8241013D00F4A0F48126852F8231005
:1043C000FFF740FE04F1805404F50134A400236893
:1043D000002023F03F03236010BD0220704744F00B
:1043E00020410548FFF72EFEECE700BFE40F002058
:1043F000E8130020E00F0020007FC767416861B12B
:1044000010B5044691FAA1F12046B1FA81F1FFF707
:10441000BFFF61680029F5D110BD70470E4B1B68C6
:10442000994204D80D4B53F82130834201D0022029
:10443000704770B515460C4602F0F6FB0122084E97
:10444000A240336805FA04F123EA020529433160EA
:1044500002F0F2FB002070BD74100020E813002071
:10446000D02002400A4B1B68994204D8094B53F8EC
:104470002130834201D002207047003218BF012250
:1044800001F1804101F508310A700020704700BF3A
:1044900074100020E813002010B101600020704764
:1044A0000220704710B50A4CD3B22468A34206D844
:1044B0001E2B04D8074C54F82330834201D002202D
:1044C00010BD08461146FFF7BDFD002010BD00BF1E
:1044D00074100020E81300202DE9F0410546002863
:1044E00040D00C46002940D04FF0FF31204801F069
:1044F00077FE2378FE2B11D022461E491E480968FC
:10450000FF2B06D0994229D31E2B27D850F82330F1
:1045100023BB52F8043FDBB2FE2BF1D100226A60CC
:1045200023782A60FE2BAA6019D0DFF84C8001277F
:10453000124E04E054F8043FDBB2FE2B0FD01E2BCA
:10454000F8D86A6807FA03F10A4348F823506A600A
:10455000226831462846FFF7A5FFEBE7002504480F
:1045600001F098FE2846BDE8F0810D46FAE700BF4D
:104570002410002074100020E8130020007FC7677B
:104580000E4B1B68994216D81E2914D80C4B53F8B1
:10459000213083420FD101F1805101F501318900B1
:1045A0000B6822EAE27223F03F0302F03F021A4353
:1045B0000A60002070470220704700BF741000207E
:1045C000E8130020704700BF032270B50B4D82B086
:1045D0002B680B4C00925E6820461C234FF0405223
:1045E0000021B04701222B68009220464FF4007250
:1045F0005C6800210923A04702B070BDA40100102F
:1046000000A00C400020704738B50A4B1C6864B10C
:104610000546A3681D4205D0D4E90332002128468F
:10462000984720B92468002CF3D1002038BD4FF002
:10463000FF3038BDFC03002001280CBF07220022F8
:10464000014B00201A60704700000460F8B502F0CA
:10465000EBFA1E4C054694F8E0307BB902201C4B67
:104660009C68A04706461020FFF7CEFF0EB103203E
:10467000A0472846BDE8F84002F0DEBAA36813F070
:10468000400608D1134A334611681348CF68012207
:104690003421B84790B93221104B11481B68B1FB47
:1046A000F3F1002908BF012102F05CF90C4802F087
:1046B000E9F82846BDE8F84002F0BEBA03F042FC33
:1046C000034B84F8E06002209C68CAE7FC030020EA
:1046D000A4C50000A401001000A00C401805002093
:1046E0002C040020012838B503D003F05DFC002025
:1046F00038BD044603F004FC0128F6D00E4D03F04B
:1047000015FCAB6885F8E0409B06F0D432240B4BD7
:1047100005F130001968B4FBF1F4002C08BF012446
:1047200002F01CF905F13000214602F01BF905F1F9
:10473000300002F0A7F8DAE7FC030020180500209B
:104740000022034B93F8E60083F8E620704700BF91
:10475000FC0300200122024B83F8E620704700BFD3
:10476000FC030020014B9868704700BFFC03002049
:10477000022905D0012814BF00204FF47A70704739
:1047800040F2EE23012814BF00201846704700BFF6
:10479000044B93F8E6201AB1D3F8103103B118474F
:1047A000704700BFFC03002050B14AB108B5C0E912
:1047B0000212036101460448FFF7D2FB002008BD46
:1047C0006FF00200704700BFFC03002010B50446E4
:1047D00002F02AFA094A111991F8E830013BDBB2DC
:1047E00081F8E83033B90121936801FA04F423EA2F
:1047F0000403936002F020FA002010BDFC030020A7
:1048000008B5042003F07CFB831E012B1CD9012872
:1048100021D0134B1B68C3F38153032B11D041F2FA
:104820008831022B0CBF0B4632230E4A0E4811680A
:10483000B3FBF1F102F096F8BDE808400A4802F037
:1048400021B84FF47A73F0E7FFF7BEFEBDE80840E9
:104850000220FFF7BBBFBDE80840FFF7B5BE00BFB1
:10486000B43F00501805002050040020F8B504465D
:1048700002F0DAF9224A0546131993F8EF000138DD
:10488000C0B283F8EF00F8B91E4B13F8246003EBB5
:104890008404370664881CD51B4F20463B681B6A7E
:1048A00098473B6820469B6A98473B6820461B6BAD
:1048B00098470121154B164A196013689907FCD5D2
:1048C00006F03F0012280CD9284602F0B5F9002066
:1048D000F8BD730608D502EB8404D4F80431984778
:1048E000EEE7FFF7C3FFEFE7074F20463B689B6902
:1048F00098473B6820465B6B98470228F9D1DFE771
:10490000FC03002000C60000B80100102820086049
:104910002820084038B5044602F086F90121084AEB
:1049200001FA04F51444916894F8E83029430133FE
:10493000916084F8E83002F07FF9002038BD00BFB4
:10494000FC030020F0B5464C85B094F8E75015B153
:10495000002005B0F0BD0127424E01A8F27C73682B
:1049600084F8E620C4F8103184F8E77001F09CFE6A
:104970002A4601AB3C4904F10C0002958DF8045025
:10498000039501F0C1FF2A4601AB384904F130001C
:1049900001F0BAFF2A46364901AB04F1540001F098
:1049A000B3FFB368384698473249334A0978337DB4
:1049B0001568C5F38155D3B9AB1E012B45D9012D1F
:1049C0003CD00220FFF7A6FF042003F099FA01284B
:1049D00037D03223294A2A481168B3FBF1F3B3FBDD
:1049E000F1F101F0BFFF264801F04CFF1BE0032D61
:1049F00008D0AB1E012BE2D80220FFF78BFF42F25A
:104A0000107306E0022084F8E170FFF783FF4FF493
:104A10007A731A4A1A481168B3FBF1F101F0A2FF48
:104A2000174801F02FFF174B1868C0F380000028CB
:104A30008ED1FFF76FFF002005B0F0BDFFF7C4FD7A
:104A4000F1E70020FFF7C0FDEDE70220FFF762FF6E
:104A5000032D42F2107308BF4FF47A73D9E700BFF9
:104A6000FC030020A4C50000C54500004D46000021
:104A70000148000064140020B43F005018050020D5
:104A800050040020B03F00502DE9F041044602F0F0
:104A9000CBF8244F06463A1992F8EF30591C82F8A9
:104AA000EF1003BB204D15F8248008F03F001228BA
:104AB0002ED905EB840418F0800F648819D01B4DA3
:104AC00020462B68DB6998472B6820465B6A98472D
:104AD0002B682046DB6A98470121154B154A19605F
:104AE00013689B07FCD5304602F0A6F80020BDE80D
:104AF000F08118F0400F0ED10C4D20462B685B69F9
:104B000098472B6820465B6B98470128F9D1EAE764
:104B1000FFF7BAFFCDE707EB8404D4F80431012096
:104B20009847E0E7FC03002000C60000B801001031
:104B300028200860282008402DE9F043012883B090
:104B400040F00481844CD4F8DC60012E40F0FB80FE
:104B50000223C4F8DC3002F073F93046FFF754FD4D
:104B6000054600286DD101F063FC7C4B80461D603A
:104B7000304603F0C5F9012800F0DF800021784BB2
:104B8000784A196094F8007194F8FF307F1A12681F
:104B900018BF01270BB147F0020794F8FE300BB1A4
:104BA00047F0040794F8FA302BB16F4B4FF4806054
:104BB0001B681B6B984794F8F9302BB16A4B4FF484
:104BC00081601B681B6B98470126DFF89C91674A40
:104BD000D9F8003016609B6947F020009847644A76
:104BE000A3681660DA0734D4DFF88891484603F0EA
:104BF00045FA04280646F9D0012840F08B80DFF8FA
:104C000084910321D9F800305A485B6898475A4A82
:104C10000020136823F00303136002F0C1FA524B23
:104C2000504A1B6812689B6B9847D9F80030314690
:104C30005B6850489847504A136843F00303136079
:104C400010E0C4F8DC6002F003F9284603B0BDE8C8
:104C5000F083002002F0A4FAD9F80030414A9B6B9F
:104C6000126898470121404E3D4A336811605B69E4
:104C70003846984794F8FA3023B133684FF480608F
:104C8000DB6A984794F8F9302BB1374B4FF48160C9
:104C90001B68DB6A9847012103200022334BC4F8CC
:104CA000DC001960324BDFF8C0901A60D9F8003090
:104CB00038465B6B984701280646F7D1DFF8A49089
:104CC0000420D9F80030FFF79FFC0746234B2B4AFE
:104CD0001E60D9F8003013689B06FCD54DBB02F06E
:104CE000DDFB0820FFF790FC012305464046C4F891
:104CF000DC3001F05BFC224B188A02F059FB02F019
:104D0000A7F837BB003518BF01256D42284603B010
:104D1000BDE8F083184A0020136823F003031360F2
:104D200002F03EFA104B0F4A1B6812689B6B9847C3
:104D300081E72846FFF7D6FCD1E7019003F034F96C
:104D4000019805461AE76FF004057EE76FF001054C
:104D50007BE74FF0FF3578E7FC0300200C4009406B
:104D6000000222432C200940B801001028200860CE
:104D700080010443004003402422084014100940ED
:104D8000A4C50000D801001038B5054601F04CFF5D
:104D9000044629460348FFF70FF92046BDE838408E
:104DA00001F04ABFFC03002030B5022885B023D0B3
:104DB000032805461BD0012802D0002005B030BDD5
:104DC000002401A801F070FC01AB2A460C490D48F3
:104DD00002948DF80440039401F096FD23460A4A9C
:104DE0002C210A4801F040FF204605B030BD00F0FC
:104DF00071F8002005B030BD00F032F805B030BDCC
:104E0000B153000074040020BD500000980400203D
:104E100038B501F009FF0D4B044693F8E0307BB143
:104E20000B4A002311680B480122CD683421A847A2
:104E3000051C18BF0125204601F0FEFE284638BD9E
:104E40000125204601F0F8FE284638BDFC0300206D
:104E5000A401001000A00C400020FFF7F7BB00BF2A
:104E600070B5164D95F8E13013B9154B5C7DDCB18A
:104E700001F0DAFE95F8E340C4B9012685F8E36055
:104E800001F0DAFE0220FFF745FD0E20FFF7FCFDE2
:104E90000C4B1B687BB940230B480C490C4A85F826
:104EA000E24003600B601660204670BD002401F0F4
:104EB000C3FE204670BD3446204670BDFC03002072
:104EC000A4C5000004800C4038500C402C500C400D
:104ED00020800C40F0B5694C83B094F8E4305A1E41
:104EE0000B2A00F2C780DFE802F03D0620968720FB
:104EF0009687209679670121614A94F8E130116024
:104F0000002B00F0B380002203215E4B84F8E410F4
:104F10001A60032000225C4B5C4908601A601B6821
:104F20009B0700F1A88094F8E430594A032B1268DB
:104F3000556800F0898000210523009160225548C2
:104F4000A84794F8E430062B0CBF07230A2384F803
:104F5000E43001224C4B50481A6003B0BDE8F040E9
:104F600001F090BC4D4B20201B6802251B68984720
:104F70000F2741F61D51464E49484A4A336807609B
:104F8000116000955F684FF4C0720723002141480B
:104F9000B84732680723D66800214FF4C0723D48F5
:104FA000B0470122404B3C481A6084F8E45003B0FB
:104FB000BDE8F04001F066BC002501263B4A3C4BB1
:104FC00015600E201E60FFF751FC0220FFF7FEFB6C
:104FD00084F8E46084F8E35003B0F0BD00230C22B1
:104FE0003148294903602C480B6084F8E42003B061
:104FF000BDE8F04001F046BC052B0CBF0623092399
:10500000002284F8E43024481F4B1A6003B0BDE846
:10501000F04001F037BC042B21D094F8E43001219A
:105020000A2B0CBF03230223224A116084F8E230CA
:10503000082200250121154B1F4C1C481D602260D1
:105040000260196003B0F0BD022205230092002126
:1050500060221048A847042384F8E43079E720222E
:105060000121144B84F8E2101A60E1E7062384F86A
:10507000E4304EE7FEE708486FE700BFFC0300207E
:105080001C400C4044600C4038600C4000400C4018
:10509000A401001000A00C4074040020A001001026
:1050A0000C400C4010400C4034600C402C500C4024
:1050B00004800C4018400C4038500C400022F0B5E1
:1050C000AD4CAE4994F8E23083B00A602BB1012BAD
:1050D00008D0022B72D0032B2FD003B0BDE8F040D4
:1050E000FFF7F8BE4BF2F523A1F5815104390D68A5
:1050F000A34A03FB05F312681D0AC2F38142012A89
:1051000000F0008194F8E5202B46002A40F0EC8066
:105110009C4A126822F07F4213445B0801209A4A9D
:105120009A499B4D527D0B601B0C2B608860002AB6
:105130003CD0052384F8E430CFE7964BD4F8B81080
:105140001B680029A3F5C06383EAE370B8BF494236
:10515000A0EBE3708842C4F8D430D8BF84F8D820DC
:1051600024DD8D4DB4F8BC202B6800925E684FF4AE
:105170007F42082330218948B047B4F8C0202B680B
:1051800000925E684FF4F802122304218348B0476E
:10519000B4F8D0202B6800925D684FF440620A2377
:1051A00020217E48A847012384F8D8300B2384F8B7
:1051B000E43003B0BDE8F040FFF78CBE754B1D68CE
:1051C00002F068F9764A1368002BFCD00123754978
:1051D0000E68136008B902F061F9C6F30726C4F837
:1051E000BC6002F057F96E4A1368002BFCD0012313
:1051F0006D490E68136008B902F050F9C6F3844691
:10520000C4F8C06002F046F9654A1368002BFCD070
:10521000012366490E68136008B902F03FF9C6F32E
:105220008126A5F5C063C4F8D060C4F8B830002B5F
:105230005ED094F8D820002A5DD0D4F8C820D4F8E5
:10524000D430002BACBF02216FF0010103EB43030C
:105250005B1848BF033302EBA303D4F8BC10002B48
:10526000C4E931135BDD1E2B0ADDD4F8CC20002A03
:1052700069D1332BA8BF33230322153BC4E9323253
:10528000454E89B2336800915F684FF47F4208232E
:1052900030214248B8470122336800925F684FF4DA
:1052A0000032112304213D48B847B4F8C8203368C0
:1052B00000925F684FF4F802122304213748B84780
:1052C000B4F8CC20336800925E684FF440620A2341
:1052D00020213248B047A5F2FF55022D7FF666AF78
:1052E000082384F8E430F8E6002284F8E52015E786
:1052F00084F8D830EFE7D4F8C020C4F8CC60C4F804
:10530000D4309EE702F08EFE02F068FE02F084FECA
:105310002B11C01000FB03F005EBE035F2E6D4F8EA
:10532000CC20032A1DD06FF009020129B8BF01214A
:105330009342B8BF1346032201390B33C4E931133A
:10534000C4F8CC209CE7292BA8BF29233E29A8BF5D
:105350003E2100220B3B0131C4E93113C4F8CC20BB
:105360008EE76FF013029342B8BF13460022153345
:10537000C4E9323284E700BFFC0300202C500C400B
:10538000B43F005010200940A4C500003C600C4010
:1053900040600C4008400C40A401001000A00C40EC
:1053A00000800C4030A00C4004A00C4020A00C4019
:1053B000154B93F8E430023B0A2B23D8DFE803F0C7
:1053C0001C16102216102216102206000F4B1A6807
:1053D0009107FCD40E4B1A689207FCD4FFF77ABDF4
:1053E0000B4B1A689007FCD5FFF774BD084B1A6881
:1053F0009207FCD4FFF76EBD044B1A689107FCD5E9
:10540000FFF768BDFEE700BFFC03002034600C40DE
:1054100038600C4070B501F007FC0F4B05461A7858
:10542000A2B901210D4A197013787BB1013B0C4CD4
:10543000DBB203EB430304F10C0606EB830623689F
:1054400020469B680C349847B442F8D12846BDE802
:10545000704001F0F1BB00BF78100020FCC50000D7
:10546000F0C500000B4B1B788BB10B4B1B788342B4
:105470000DD90A4B00EB4000800010B41A58084CBC
:10548000D268002908BF2146184410BC10470020EC
:10549000704700BF78100020FCC50000F0C5000078
:1054A0004CC6000030B40446044D0FCD0FC40FCDE0
:1054B0000FC42B68236030BC704700BF4CC600008F
:1054C0000368DB69184700BF002243681A70704701
:1054D0004FF0FF30704700BF836840681B689B69CE
:1054E0001B0703D49830022101F050B84FF4FA7131
:1054F000084B10B51B6800F58274B1FBF3F101296C
:10550000204638BF012101F02DFA2046BDE81040A9
:1055100001F0B8B91805002038B5044601F084FB45
:105520002378054623B10220FFF750F900232370AA
:105530002846BDE8384001F07FBB00BF2129F8B5FF
:10554000456822D0222909D0202902D06FF001001D
:10555000F8BD0123002085F82D30F8BD866801F0E4
:1055600063FB07460B4C236830681B699847013082
:10557000F9D100242B6C3846013BC5E91143EC649A
:10558000AC6301F059FB2046F8BD002085F82D00E2
:10559000F8BD00BFD00100104068E83000F07ABECE
:1055A0004068CC3000F076BE38B50C46054601F0B8
:1055B0003BFB2268936B23F02003936301F03CFBD9
:1055C000217D0122286EFEF729FF217D0122286E10
:1055D000FEF748FF217D0022286EFEF7D1FFA17D56
:1055E000286E0022FEF7CCFFAB78012B16D1226883
:1055F000183213681B07FCD4217D1022286EFEF799
:10560000BFFFA17DFF2908D0E37DFF2B05D0286EC9
:105610001122BDE83840FEF7B3BF38BD4FF0FF316F
:1056200005F1CC0000F0DCFDE6E700BFF8B5C2B143
:105630000E4604461546036A0B4F09E0D4E90832CA
:10564000013D03F1010302F10102C4E9083208D06F
:105650003A6819783068936998470028EED128464F
:10566000F8BD00252846F8BDD0010010DAB1F8B524
:1056700004460E4615460D4F0BE0236B013D187096
:10568000D4E90C1301F1010103F10103C4E90C1386
:1056900007D03B6830681B699847431CEDD128460A
:1056A000F8BD0020F8BD0020704700BFD0010010F9
:1056B000B2B1F8B50E46144600F13C05094F04E0BE
:1056C000013C284600F01EFD44B13B6830681B6970
:1056D0009847431CC1B2F3D12046F8BD0020F8BD65
:1056E00000207047D001001070B505460E4600F549
:1056F0008274204601F032F90D492A7F6B7F01FB4D
:1057000006F11344073301FB03F1A869094BB1FB10
:10571000F0F11B68204603F163021144B1FBF3F181
:10572000013101F01FF92046BDE8704001F0AAB830
:1057300040420F0018050020F0B50C46254E83B0FE
:1057400033680546DB680868984740F2F2712268C2
:1057500094F82000936B204F23F4FE6323F00203A0
:105760009363236894F8212059641C493B5C895C4D
:1057700022680B435363684601F002F9297F184AF7
:10578000687F184B52F82120AF7F174953F820301B
:1057900051F82710306813430B434668AA69206804
:1057A0000199B0472268D36A43F01003D36222689C
:1057B000136B43F001031363A37DFF2B07D0E37D3D
:1057C000FF2B04D02268136B43F44043136303B0F0
:1057D000F0BD00BFD0010010DCC60000C4C6000050
:1057E00098C60000CCC60000A8C60000042801D05E
:1057F0000020704708B5D2E90101FFF79DFF0020A6
:1058000008BD00BF2DE9F043446887B007460D4648
:10581000D0F8088001F008FA2678002E40F0DD80EC
:105820000123237001F008FA29786A786B686170A7
:10583000A968A270EA6863602B69A160297DE260B3
:105840006A7D2361AB7D287F2175A9696275A37587
:105850006A7FAB7FA161A377627720772662266398
:1058600066626663A662A66384F82C6084F82D6085
:1058700084F8286184F82961D8F80400FFF704F956
:10588000D7E90101FFF758FFBD6856496B7DD7F88E
:10589000049043F0004301932B7D0B430293AB7DB7
:1058A000FF2B09D0EA7DFF2A06D043F000430A43CC
:1058B000CDE90332042300E00223FE2206A901EB16
:1058C000830309F1540001A943F8142CFEF704FEE8
:1058D0000646C9F8600000285CD00F22697DFEF7FB
:1058E0004FFE297D1022D9F86000FEF749FEA97D00
:1058F000FF290DD0EB7DFF2B0AD01122D9F86000D3
:10590000FEF73EFEE97DD9F860001222FEF738FE70
:1059100001A801F0EDF9019798F80C50D8F808109B
:1059200001AB314A04F17C00029501F09DF901A818
:1059300000F056FDD8F810302C4901AA04F1980067
:105940000197039300F054FDA178002935D06178C8
:1059500000293BD0002501A800F0A6FE01AB0A22D9
:10596000234904F58270CDE902578DF8045000F008
:10597000CBFFD8E9061204F13C0000F097FB3B4650
:1059800004F168001B4A0421FEF70EFF384607B0F9
:10599000BDE8F083184BD8F800001B68DB68984717
:1059A000D8F80400FEF762FF01F03EF9267001F01E
:1059B00043F9304607B0BDE8F08304F1CC0000F0B5
:1059C000F7FB0E4B617823610029C3D104F1E80095
:1059D00000F0EEFB0A4BE360BCE701F02DF900207C
:1059E000E8E700BF0000C0A0715B0000855E00001A
:1059F000D9540000ED570000D0010010A15500005F
:105A0000995500004FF0FF30704700BF2DE9F04777
:105A10008768904644680646894601F005F93A6869
:105A200023788246156B002B65D005F48075002D18
:105A300061D104F5827000F091FF3A685046136B13
:105A4000E57743F48073C4F820906562136301F036
:105A5000F3F801F0E9F894F82931814604F22915A8
:105A60002BB90220FEF756FF012384F8293148465E
:105A700001F0E2F8D6E901014246FFF7D7FDA06246
:105A800080B101F0D1F83A68936B43F0200393633F
:105A900001F0D2F894F80290B9F1000F12D0002072
:105AA000BDE8F08770684146FFF71EFEA678002E1D
:105AB000F5D1A16804F1CC0000F092FB08BB606A4C
:105AC000BDE8F087A16804F1CC0000F089FB002854
:105AD000F5D041467068FFF707FE1023C4F8289000
